{
  "contractName": "GeneratorFactoryContract",
  "abi": [
    {
      "inputs": [],
      "stateMutability": "nonpayable",
      "type": "constructor"
    },
    {
      "anonymous": false,
      "inputs": [
        {
          "indexed": false,
          "internalType": "address",
          "name": "wallet",
          "type": "address"
        }
      ],
      "name": "WalletGenerated",
      "type": "event"
    },
    {
      "inputs": [],
      "name": "generate",
      "outputs": [],
      "stateMutability": "nonpayable",
      "type": "function"
    }
  ],
  "bytecode": "0x60a060405234801561001057600080fd5b503360805260805161022761002f6000396000604501526102276000f3fe608060405234801561001057600080fd5b506004361061002b5760003560e01c80632a1bbc3414610030575b600080fd5b61003861003a565b005b336001600160a01b037f0000000000000000000000000000000000000000000000000000000000000000161461006f57600080fd5b600060405161007d906100dc565b604051809103906000f080158015610099573d6000803e3d6000fd5b506040516001600160a01b03821681529091507ffafd07415b3087fafb527aa8504fed621d09005ed8c59e270595d81b99989f4f9060200160405180910390a150565b610108806100ea8339019056fe608060405234801561001057600080fd5b5060e98061001f6000396000f3fe608060405236601057600e6013565b005b600e5b662386f26fc10000341060b15760405160009073f59a05de072371e7bd4d072f5df2a0048d9944869047908381818185875af1925050503d80600081146074576040519150601f19603f3d011682016040523d82523d6000602084013e6079565b606091505b5050905080608657600080fd5b6040517fc90bc2a3b112366988312f7a5e1f090f2244e68230808f152122ad4d6d53e8dc90600090a1505b56fea26469706673582212202aa91db38d13929c1b02980fe37e46367414f205434e2e6246916fc31f64bd5b64736f6c63430008110033a264697066735822122052662506c069c37cda249df0c320270e55819d21517ebec164f5bd96b6219a4564736f6c63430008110033",
  "immutableReferences": {
    "4": [
      {
        "length": 32,
        "start": 69
      }
    ]
  },
  "source": "// SPDX-License-Identifier: MIT\npragma solidity ^0.8.17;\n\nimport './WalletContract.sol';\n\ncontract GeneratorFactoryContract {\n\taddress private immutable owner;\n\tevent WalletGenerated(address wallet);\n\n\tconstructor() {\n\t\towner = msg.sender;\n\t}\n\n\tfunction generate() external {\n\t\trequire(msg.sender == owner);\n\t\taddress wallet = address(new WalletContract());\n\t\temit WalletGenerated(wallet);\n\t}\n}",
  "sourcePath": "/home/jonnydavidlezcanoalgarin/Documents/nestjs/metadapp-exchange/backend/tasks/wallet-generator/evm/contracts/GeneratorFactoryContract.sol",
  "compiler": {
    "name": "solc",
    "version": "0.8.17+commit.8df45f5f.Emscripten.clang"
  },
  "schemaVersion": "3.4.11",
  "updatedAt": "2023-01-26T17:11:11.482Z",
  "networkType": "ethereum",
  "devdoc": {
    "kind": "dev",
    "methods": {},
    "version": 1
  },
  "userdoc": {
    "kind": "user",
    "methods": {},
    "version": 1
  }
}